S00D00004C616220362E73726563B2
S11300000C9434000C943E000C943E000C943E007E
S11300100C943E000C943E000C943E000C943E0064
S11300200C943E000C943E000C943E000C943E0054
S11300300C943E000C943E000C943E000C943E0044
S11300400C943E000C943E000C946B000C943E0007
S11300500C943E000C943E000C943E000C943E0024
S11300600C943E000C943E0011241FBECFEFD8E048
S1130070DEBFCDBF0E9464000C947A000C94000093
S11300808AB182608AB98AB18E7F8AB91092C0001F
S113009088E98093C10086E08093C20087E690E0FF
S11300A09093C5008093C4000895F8940E94400082
S11300B08FEF84B915B8789408959091C00095FF96
S11300C0FCCF8093C60008950E94550088E490E018
S11300D00E945D00FFCF1F920F920FB60F92112462
S11300E08F938091C60085B98F910F900FBE0F90AA
S10B00F01F901895F894FFCF4E
S9030000FC
