:100000000C9434000C9451000C9451000C94510049
:100010000C9451000C9451000C9451000C9451001C
:100020000C9451000C9451000C9451000C9451000C
:100030000C9451000C9451000C9451000C945100FC
:100040000C9451000C9451000C94BC000C94510081
:100050000C9451000C940C010C9451000C94510020
:100060000C9451000C94510011241FBECFEFD8E026
:10007000DEBFCDBF11E0A0E0B1E0E0E4F3E002C0FC
:1000800005900D92AA38B107D9F721E0AAE8B1E0AE
:1000900001C01D92AB38B207E1F70E94AE000C948C
:1000A0009E010C9400008AB182608AB98AB18E7F69
:1000B0008AB91092C00088E98093C10086E08093DD
:1000C000C20087E690E09093C5008093C400089535
:1000D0009091C00095FFFCCF8093C60008950F93C8
:1000E0001F93CF938C01C0E003C00E946800CF5FD4
:1000F000F801EC0FF11D80818111F7CFCF911F9195
:100100000F910895ECE7F0E0108284E68083EAE73F
:10011000F0E0108280818B6880830895F89487B125
:100120008F7E87B987B1826087B987B1816087B9CF
:100130000E9453000E9482008FEF84B915B8789412
:10014000089581E091E00E946F0083E191E00E94B8
:100150006F0089E291E00E946F0008950E948E0076
:100160000E94A100809100018133E1F7EAE7F0E00D
:10017000808180648083F6CF1F920F920FB60F921A
:1001800011242F933F934F935F936F937F938F939C
:100190009F93AF93BF93EF93FF938091C60090918D
:1001A00000019033C9F4813339F48093000188E36E
:1001B00091E00E946F001FC0823339F480930001E8
:1001C00085E591E00E946F0016C08AE691E00E94EA
:1001D0006F000E94A1000FC090910001923359F46A
:1001E00085B9829586958695837088B980E38093DA
:1001F00000010E94A100FF91EF91BF91AF919F91EB
:100200008F917F916F915F914F913F912F910F90BF
:100210000FBE0F901F9018951F920F920FB60F925E
:1002200011242F933F934F935F936F937F938F93FB
:100230009F93AF93BF93EF93FF93CF93DF93CDB78C
:10024000DEB72A97DEBFCDBF809100018133E9F48C
:100250008091790080938A014AE050E0BE016F5F8F
:100260007F4F90E00E945E018DE791E00E946F0059
:10027000CE0101960E946F0087E291E00E946F001C
:1002800080E3809300010E94A1002A960FB6F894A3
:10029000DEBF0FBECDBFDF91CF91FF91EF91BF9138
:1002A000AF919F918F917F916F915F914F913F910E
:1002B0002F910F900FBE0F901F901895453251054A
:1002C00020F4423010F00C946901FB011082CB0144
:1002D0000895BB274A3031F4992322F4BDE290956A
:1002E00081959F4F0C947501BB27FB015527AA27C9
:1002F000880F991FAA1FA41710F0A41B83955051B3
:10030000B9F7A05DAA3308F0A95DA193009779F72A
:10031000B111B1931192CB010C948E01DC01FC015F
:10032000672F71917723E1F7329704C07C916D9329
:1003300070836291AE17BF07C8F30895F894FFCF9A
:10034000305175652064657365612068616365720D
:100350003F0A004C65657220506F74656E63696F6B
:100360006D6574726F3A200A00456E76696172207D
:100370004153434949200A00506F74656E63696FA9
:100380006D6574726F2053656C656363696F6E6130
:10039000646F200A0041534349492073656C6563CB
:1003A00063696F6E61646F200A004F7063696F6EDE
:1003B000206E6F2076616C696461200A0056616C62
:0A03C0006F72204144433A20000010
:00000001FF
